:1005BC00112484B714BE982F9D7009F013D18EE0CE
:1005CC00FED0B89A0EED12E01F70812F806CE82ED1
:1005DC00D0E0C0E043E0942E8824839455E0752E3F
:1005EC00DAD0813479F4D7D0F82EEDD092E882E0CD
:1005FC00F91621F0E1E886E0FE1283E0BDD080E13F
:10060C00BBD0EECF823419F484E1E5D0F8CF853439
:10061C0011F485E0FACF853549F4BDD0C82FD0E070
:10062C00BAD0D82BCC0FDD1FCED0E9CF863521F434
:10063C0084E0D1D080E0E2CF843609F061C0ABD049
:10064C00AAD0F82EA8D0682E5F2C20E6C22ED12C72
:10065C005601FFEFAF1ABF0A9ED0F60180835A9461
:10066C0065015110F5CFAFD0209719F5809160003E
:10067C008093A400209161002093A50090916C00C0
:10068C009093A60090916D009093A70030E0322FCC
:10069C00222722273F70282B265031093F702093A8
:1006AC006C00832F806C80936D0000936000E0924F
:1006BC006100F5E46F1201C0FFCFFE0197BEE89513
:1006CC0007B600FCFDCFFE01A0E6B0E09C919D01B9
:1006DC002E5F3F4F11968C918927982789270C0103
:1006EC0087BEE89511243296FA94FA94D901F11048
:1006FC00EDCFFE0177BEE89507B600FCFDCF7FCFAE
:10070C00843759F548D047D0F82E45D05CD06E01CF
:10071C00C114D10451F48091A400FFEFCF1ADF0A69
:10072C002BD0FA94F110F4CF6ACFF1E0CF16D104AC
:10073C0019F48091A500F1CF8CE0C816D10419F4FE
:10074C008091A600EACF9DE0C916D10419F48091DE
:10075C00A700E3CFF6018491E0CF853739F433D08D
:10076C008EE10AD081E908D088E048CF813509F0C4
:10077C005BCF88E024D058CF2AE030E080950894F5
:10078C0010F4C09802C0C09A000015D014D0869501
:10079C002A95B1F70895A89529E030E0B199FECFDC
:1007AC000AD009D008D08894B19908942A9511F0F0
:1007BC008795F7CF089598E09A95F1F7089598E109
:1007CC0091BD81BD0895E7DF803219F088E0F7DF35
:1007DC00FFCF84E1D1CFCF93C82FDDDFC150E9F734
:1007EC00CF91F1CF282E80E0EADFE6E0FF270994D5
:0207FE000206F1
:04000003000005BC38
:00000001FF
