:100DBA00112484B714BE982F9D7009F013D18EE0C8
:100DCA00FED0B89A0DED16E01F70812F806CE82EC8
:100DDA00D0E0C0E043E0942E8824839455E0752E39
:100DEA00DAD0813469F4D7D0F82EEDD092E882E0D7
:100DFA00F916F9F0E1E883E0FE121BC086E019C09B
:100E0A00823419F484E1E7D015C0853411F485E001
:100E1A00FACF853549F4BFD0C82FD0E0BCD0D82B43
:100E2A00CC0FDD1FD0D006C0863539F484E0D3D08C
:100E3A0080E0A2D080E1A0D0D3CF843609F061C08F
:100E4A00AAD0A9D0F82EA7D0682E5F2C20E6C22EF1
:100E5A00D12C5601FFEFAF1ABF0A9DD0F60180834D
:100E6A005A9465015110F5CFAED0209719F58091AB
:100E7A0060008093E400209161002093E500909146
:100E8A006C009093E60090916D009093E70030E03B
:100E9A00322F222722273F70282B265031093F70F4
:100EAA0020936C00832F806C80936D000093600008
:100EBA00E0926100F5E46F1201C0FFCFFE0197BE18
:100ECA00E89507B600FCFDCFFE01A0E6B0E09C91D4
:100EDA009D012E5F3F4F11968C918927982789276C
:100EEA000C0187BEE89511243296FA94FA94D90136
:100EFA00F110EDCFFE0177BEE89507B600FCFDCFF5
:100F0A0099CF843759F547D046D0F82E44D05BD0D4
:100F1A006E01C114D10451F48091E400FFEFCF1A9D
:100F2A00DF0A2AD0FA94F110F4CF84CFF1E0CF1679
:100F3A00D10419F48091E500F1CF8CE0C816D104F0
:100F4A0019F48091E600EACF9DE0C916D10419F49C
:100F5A008091E700E3CFF6018491E0CF853731F441
:100F6A0032D08EE109D082E907D048CF813509F025
:100F7A0059CF88E024D056CF2AE030E080950894F3
:100F8A0010F4C09802C0C09A000015D014D08695FB
:100F9A002A95B1F70895A89529E030E0B199FECFD6
:100FAA000AD009D008D08894B19908942A9511F0EA
:100FBA008795F7CF08959AEA9A95F1F7089598E1F7
:100FCA0091BD81BD0895E7DF803219F088E0F7DF2F
:100FDA00FFCF84E1D1CFCF93C82FDDDFC150E9F72E
:100FEA00CF91F1CF282E80E0EADFE6E0FF270994CF
:020FFE000206E9
:0400000300000DBA32
:00000001FF
